:020000040800F2
:100000000050002099010008DA010008DA01000818
:10001000DA010008DA010008DA0100080000000037
:10002000000000000000000000000000DA010008ED
:10003000DA01000800000000DA010008DA01000817
:10004000DA010008DA010008DA010008DA01000824
:10005000DA010008DA010008DA010008DA01000814
:10006000DA010008DA010008DA010008DA01000804
:10007000DA010008DA010008DA010008DA010008F4
:10008000DA010008DA010008DA010008DA010008E4
:10009000DA010008DA010008DA010008DA010008D4
:1000A000DA010008DA010008DA010008DA010008C4
:1000B000DA010008DA010008DA010008DA010008B4
:1000C000DA010008DA010008DA010008DA010008A4
:1000D000DA010008DA010008DA010008DA01000894
:1000E000DA010008DA010008DA01000880B483B000
:1000F00000AF786000E000BF7B685A1E7A60002B7A
:10010000F9D100BF00BF0C37BD4680BC704780B539
:1001100000AF00F00DF800F033F80448FFF7E6FFF9
:1001200000F022F80148FFF7E1FFF4E700350C008A
:1001300080B400AF0A4B1B68094A43F010031360F8
:10014000084B1B68074A23F470031360054B1B68B8
:10015000044A43F40013136000BFBD4680BC7047DF
:10016000181002400410014080B400AF034B4FF45C
:1001700000521A6000BFBD4680BC7047101001409D
:1001800080B400AF034B4FF400521A6000BFBD466D
:1001900080BC7047141001400A480B490B4A914239
:1001A000BEBF50F8043B41F8043BF8E70849094A50
:1001B00000239142B8BF41F8043BFADBFFF7A7FFE9
:1001C000FEE70000DC010008000000200000002025
:0C01D0000000002000000020FEE7FEE719
:040000050800019955
:00000001FF
